:100000000C9434000C9449000C9449000C94490061
:100010000C9449000C9449000C9449000C9449003C
:100020000C9449000C9449000C9449000C9449002C
:100030000C9449000C9449000C9449000C9449001C
:100040000C9449000C9449000C9449000C9449000C
:100050000C9449000C9449000C9449000C944900FC
:100060000C9449000C94490011241FBECFEFD8E036
:10007000DEBFCDBF11E0A0E0B1E0E2E0F6E002C0FB
:1000800005900D92A030B107D9F70E947A020C9426
:10009000FF020C940000CF93DF9300D000D0CDB7C7
:1000A000DEB79C838B831A8219820EC089819A8164
:1000B0002B813C81820F931F2FEFFC0120838981CC
:1000C0009A8109969A83898389819A8180329140A5
:1000D0006CF30F900F900F900F90DF91CF910895D8
:1000E000CF93DF93CDB7DEB728970FB6F894DEBF76
:1000F0000FBECDBF98878F8319821B821A827AC068
:100100008A819B812F813885820F931FFC0180811A
:100110008C838C81882309F465C01E821D825DC09A
:100120008C81882F90E00D8002C0959587950A9468
:10013000E2F781709927892B09F441C08A819B815C
:100140002F813885820F931F2A813B814F815885EB
:10015000240F351FF9012081422F21E030E00D806E
:1001600002C0220F331F0A94E2F720952423FC01DA
:1001700020838981282F30E0C901880F991F880FBB
:10018000991F880F991F280F391F8D819E81820F1B
:10019000931F01962F813885820F931F2EEEFC014D
:1001A00020838D819E81880F991F82959295907FE3
:1001B0009827807F9827982F8981892B22C08A8150
:1001C0009B812F813885820F931FFC0180818C8356
:1001D0008D819E8101969E838D838D819E8108975E
:1001E0000CF49ECF89818F5F89838A819B810996D8
:1001F0009B838A838A819B81803291400CF480CFDB
:1002000080E028960FB6F894DEBF0FBECDBFDF9119
:10021000CF910895CF93DF9300D01F92CDB7DEB773
:100220009A8389836B838B81882F90E09C012F7147
:100230003327C901880F991F880F991F880F991FAD
:10024000820F931F9C0189819A81AC01420F531F39
:100250008B81882F90E09C012F713327C901880F73
:10026000991F880F991F880F991F820F931F9C0158
:1002700089819A81820F931FFC018081682F8B8175
:10028000829586958770882F90E09C01332781E0C6
:1002900090E002C0880F991F2A95E2F7862BFA0199
:1002A00080830F900F900F90DF91CF910895CF939F
:1002B000DF9300D000D01F92CDB7DEB79C838B8335
:1002C0006D838D818F7189838D81829586958770ED
:1002D0008A838981282F30E0C901880F991F880FF0
:1002E000991F880F991F280F391F8A81882F90E046
:1002F000820F931F01962B813C81820F931FFC017B
:1003000010828D81882F90E09C012F713327C901C5
:10031000880F991F880F991F880F991F820F931FAD
:100320009C018B819C81AC01420F531F8D81882FD2
:1003300090E09C012F713327C901880F991F880F06
:10034000991F880F991F820F931F9C018B819C819D
:10035000820F931FFC018081682F8D818295869585
:100360008770882F90E09C01332781E090E002C0E5
:10037000880F991F2A95E2F7862BFA0180830F9048
:100380000F900F900F900F90DF91CF910895CF9322
:10039000DF9300D000D01F92CDB7DEB79C838B8354
:1003A0006D838D818F7189838D818295869587700C
:1003B0008A838981282F30E0C901880F991F880F0F
:1003C000991F880F991F820F931F2A81222F30E0D7
:1003D00002C0959587952A95E2F781709927892B18
:1003E000C9F48981282F30E0C901880F991F880F2F
:1003F000991F880F991F280F391F8A81882F90E035
:10040000820F931F01962B813C81820F931FFC0169
:10041000808101C080E00F900F900F900F900F909F
:10042000DF91CF910895CF93DF9300D000D000D01B
:10043000CDB7DEB79C838B836D834E838D818F71A7
:1004400089838D818295869587708A838981282FFB
:1004500030E0C901880F991F880F991F880F991FD5
:10046000280F391F8A81882F90E0820F931F0196F1
:100470002B813C81820F931F2E81FC0120832696C5
:100480000FB6F894DEBF0FBECDBFDF91CF910895B8
:10049000CF93DF9300D000D01F92CDB7DEB79C83FF
:1004A0008B836D838D818F7189838D8182958695F4
:1004B00087708A838981282F30E0C901880F991FAE
:1004C000880F991F880F991F280F391F8A81882F3D
:1004D00090E0820F931F01962B813C81820F931F26
:1004E000FC0180810F900F900F900F900F90DF9183
:1004F000CF910895CF93DF93CDB7DEB765970FB651
:10050000F894DEBF0FBECDBF80E092E09E838D8366
:100510008D819E810E944B001A82198213C08D81A9
:100520009E810E947000482F9E01265F3F4F898167
:100530009A81820F931FFC01408389819A810196E1
:100540009A83898389819A810C974CF32A858D81BE
:100550009E814AEA622F0E9413022B858D819E8123
:100560004AEA622F0E9413022B858D819E81622FA1
:100570000E9448028F838D819E8163E00E94480221
:100580008F832B858D819E81622F0E94C7018F836F
:100590008D819E8163E00E94C7018F832A858D81B2
:1005A0009E81622F0E940A012B858D819E81622F80
:1005B0000E940A0182E090E09C838B8313C09E011D
:1005C000265F3F4F8B819C81820F931FFC0120810E
:1005D0008D819E81622F0E9457018B819C810196A3
:1005E0009C838B838B819C810C974CF380E094E0FF
:1005F00099878887888599850E944B00FFCFF8945A
:02060000FFCF2A
:00000001FF
